:020000040800F2
:1000000000050020C1010008F71600082D150008A2
:10001000F5160008A9020008F11800080000000009
:100020000000000000000000000000001B17000896
:100030005D03000800000000191700081D170008E4
:10004000DB010008DB010008DB010008DB01000820
:10005000DB010008DB0100085F030008DB0100088A
:10006000DB010008DB010008DB010008DB01000800
:10007000DB010008DB010008DB010008DB010008F0
:10008000DB010008DB010008DB010008DB010008E0
:10009000AD020008DB010008DB010008DB010008FD
:1000A000DB010008DB010008DB010008DB010008C0
:1000B000DB010008DB010008DB010008DB010008B0
:1000C000DB010008DB010008DB010008DB010008A0
:1000D000DB010008DB010008DB010008DB01000890
:1000E00065030008DB010008DB010008DB010008F4
:1000F000DB010008DB010008DB010008DB01000870
:10010000DB010008DB010008DB010008DB0100085F
:10011000DB010008DB01000825180008DB010008EE
:10012000DB010008DB010008DB010008DB0100083F
:10013000DB010008DB010008DB010008DB0100082F
:10014000DB010008DB010008DB010008DB0100081F
:10015000DB010008DB010008DB010008DB0100080F
:10016000DB010008DB010008DB010008DB010008FF
:10017000DB010008DB010008DB01000800000000D3
:10018000DB010008DB010008DB010008DB010008DF
:10019000DB010008DB010008DB010008DB010008CF
:1001A0000000000000000000DB010008DFF80CD0B8
:1001B00000F068F8004800474319000800050020D7
:1001C0000648804706480047FEE7FEE7FEE7FEE7F1
:1001D000FEE7FEE7FEE7FEE7FEE7FEE7D1170008D1
:1001E000AD0100082DE9F05F0546002092469B46D0
:1001F00088460646814640241BE02846414647463D
:10020000224600F02FF853465A46C01A914110D3A7
:1002100011461846224600F016F82D1A67EB010821
:100220004F4622460120002100F00DF817EB00098F
:100230004E41201EA4F10104DFDC484631462A4627
:100240004346BDE8F09F202A04DB203A00FA02F181
:10025000002070479140C2F1200320FA03F31943B4
:1002600090407047202A04DB203A21FA02F0002156
:10027000704721FA02F3D040C2F1200291400843B6
:1002800019467047064C074D06E0E06840F0010350
:1002900094E8070098471034AC42F6D3FFF78AFF82
:1002A0007419000894190008FEE7000010B5074B08
:1002B000074A0021074800F058F90449044800F0B3
:1002C00039F8BDE81040034800F0CCB90C0000201C
:1002D0008800002024000020124910B54FF400725D
:1002E0000A600020886008220A61183140F2FF137A
:1002F0000B608860C1E90302183101220A62C1E97A
:1003000006020861086048604861074800F0A6F8E6
:100310000421054800F02AF8BDE81040024800F02A
:100320005FBB0000A400002024000020012300F097
:1003300031B8000008490A68521C0A600068A0F53C
:100340000070013805D0012803D0022801D003280D
:1003500001D101F0ECB87047000000207047012087
:1003600000F086BB4FF4005000F082BB90F82020D4
:10037000012A09D090F82020022A05D0416A41F4D0
:100380008021416201207047006842690A4342614E
:1003900000207047F0B590F82040012C07D090F86D
:1003A0002040022C03D0416A41F4802153E00468CC
:1003B000A5686D0105D4A5682D0102D4A568ED00DE
:1003C00046D5A4680125C4F30164A5401D608D686D
:1003D0004FF4C0739DB1CE6835434E6845EAC605FB
:1003E000066803EB0417F5514FF4C275076805EB77
:1003F00004150E697E51097D012905D009E00E889A
:10040000CD6845EA4655EBE701684E5946F48076DB
:100410004E511179D2F805504FF4C67641EA0521C4
:10042000056806EB0416A9511178D2F801204FF4A3
:10043000C47541EA0221026805EB041551510068B8
:1004400003EB0411425842F0010242500020F0BD7B
:10045000416A41F4001141620120F0BD10B590F8ED
:100460002020012A09D090F82020022A05D0416AD4
:1004700041F480214162012010BD3A48D0F80022A9
:1004800042F00102C0F80022D0F8002222F47C528F
:10049000C0F80022D0F800224B6A42EA0322C0F8DA
:1004A00000220B7D01229A40D0F81C329343C0F801
:1004B0001C32CB69B3B9D0F80C329343C0F80C327C
:1004C0008C894B6864F31F434C6900EBC404C4F887
:1004D00040320C890B6864F31F434C6900EBC40481
:1004E000C4F84432CB69012B16D1D0F80C32134337
:1004F000C0F80C320C884B6864F31F434C6900EB66
:10050000C404C4F840320C89CB6864F31F434C69BF
:1005100000EBC404C4F844328B69002BD0F80432D9
:100520000ED01343C0F804320B69002BD0F81432FC
:1005300008D01343C0F81432096A012904D008E036
:100540009343EFE79343F5E7D0F81C121143C0F84B
:100550001C12D0F8001221F00101C0F80012002096
:1005600010BD000000640040704730B590F8204096
:10057000012C07D090F82040022C03D0416A41F4AE
:10058000802109E011B1012909D00CE00468E46878
:1005900007E0416A41F400114162012030BD046866
:1005A0002469A407F5D04FF4D874056804EB01144E
:1005B0002D5915F00405956005682D5942D0ED08B8
:1005C000556005682C59C4F34004D4604FF4DA74C4
:1005D000056804EB01142D5905F00F051561056838
:1005E0002D59C5F30725956105682C59240C5461D4
:1005F0004FF4DC72046802EB0112A4581C7004680A
:10060000A458240A5C700468A458240C9C700468E4
:10061000A258120EDA704FF4DE72046802EB011277
:10062000A4581C710468A458240A5C710468A45876
:10063000240C9C710468A258120EDA7129B10129A8
:1006400009D00DE06D0D1560BBE70068C16841F091
:100650002001C16004E00068016941F020010161EE
:10066000002030BD2DE9F05F054600680024466992
:10067000D0F804908768D0F80CB0D0F810A0D0F86B
:100680001880F10748D0F90714D001218160B8071C
:1006900003D5284600F0D1F90CE0780702D54FF4D5
:1006A000006407E0380702D54FF4805402E0284682
:1006B00000F0C2F9F80516D529684FF480708860FB
:1006C000B80503D5284600F0BAF90CE0780502D544
:1006D00044F4005407E0380502D544F4804402E0B5
:1006E000284600F0ABF9F80316D529684FF480309E
:1006F0008860B80303D5284600F0A3F90CE078031E
:1007000002D544F4004407E0380302D544F48034B1
:1007100002E0284600F094F9300707D55FEACB6085
:1007200004D52968102044F40074C86070074FF0A5
:10073000080707D55FEA0B7004D52868C76028460C
:1007400000F048F9B00706D52868C068800702D0D5
:10075000284600F040F9700607D55FEACA6004D564
:100760002968102044F480640861B00607D55FEA68
:100770000A7004D528680761284600F02DF9F006B4
:1007800006D528680069800702D0284600F025F9C0
:10079000B00308D55FEAC96005D529681020486014
:1007A000284600F01BF9F00307D55FEA097004D56D
:1007B00028684760284600F045F9300446D55FEACE
:1007C000497040D5F00504D55FEAC87001D044F007
:1007D0000104B00504D55FEA887001D544F0020435
:1007E000700504D55FEA487001D544F00404300573
:1007F00029D518F0700F26D008F07000402815D0C9
:1008000006DC102809D020280AD0302816D10AE0AA
:1008100050280ED0602811D10EE044F008040DE0FD
:1008200044F010040AE044F0200407E044F04004DF
:1008300004E044F0800401E044F480742868816995
:1008400021F070018161296804204860002C05D0E6
:10085000686A204368622846FFF786FEBDE8F09F7D
:1008600070B5040003D094F8200010B104E001201A
:1008700070BD204600F082F82068016821F0020176
:10088000016000F0EDF90546052604E000F0E8F906
:10089000401B0A2811D8206840688007F6D42068D9
:1008A000016841F00101016000F0DAF905460BE052
:1008B00000F0D6F9401B0A2806D9606A40F40030DF
:1008C000606284F82060D2E720684068C007EFD0FB
:1008D000207E0128206801683DD021F08001016060
:1008E000607E01282068016838D021F04001016055
:1008F000A07E01282068016833D021F0200101602A
:10090000E07E0128206801682ED041F010010160CE
:10091000207F01282068016829D021F008010160AA
:10092000607F01282068016824D021F00401016063
:10093000D4E902010843D4E9041211430843616871
:10094000491E08432168C86100206062012084F8C4
:100950002000002070BD41F08001C0E741F040015F
:10096000C5E741F02001CAE721F01001CFE741F0CF
:100970000801D4E741F00401D9E7000000B50068A0
:10098000114987B088421DD110480021026842F009
:10099000007202600068022200F0007005900320DF
:1009A000CDE90210CDE9000209200490694608480B
:1009B00000F06AF800221146142000F0E7F9142034
:1009C00000F0D8F907B000BD006400404038024094
:1009D000000C024070477047704770477047000036
:1009E00070B5044690F82000012804D0606A40F4F5
:1009F0000020606218E0022084F82000206801686E
:100A000021F00101016000F02BF905460EE000BF66
:100A100000F026F9401B0A2808D9606A40F400302B
:100A20006062052084F82000012070BD20684068C5
:100A3000C007EDD1606270BD704770477047704766
:100A4000704770477047000070B5044600F008F921
:100A50000546601C02D004480078044400F000F908
:100A6000401BA042FAD370BD140000207047000064
:100A7000044910B50A68024202D00860FFF7F6FF89
:100A800010BD0000143C01402DE9F84FDFF890B193
:100A900000224FF001084FF0030A4FF00F090BF14D
:100AA000040E00BF0B6808FA02F42340A3426ED183
:100AB0004D68022D01D0122D0ED1D50800EB850C0A
:100AC000DCF820505607F70E09FA07F6B5430E6911
:100AD000BE402E43CCF82060066855000F790AFA14
:100AE00005FC07F0030726EA0C06AF403743076012
:100AF0004E68012E05D0022E03D0112E01D0122EE9
:100B00000ED18768CE6827EA0C07AE403E43866068
:100B10004668A6430C79C4F30014944034434460FF
:100B2000C4688E6824EA0C04AE402643C6604C6854
:100B3000E4006FD53B4C256845F48045256024686A
:100B400022F0030504F480440094374C2E19D6F8A3
:100B5000084895072F0F09FA07F5AC43334DA84213
:100B600001D100252EE0324DA84201D1012529E016
:100B7000304DA84201D1022524E02F4DA84201D1D9
:100B800003251FE02D4DA84202D104251AE041E0C3
:100B90002B4DA84201D1052514E02A4DA84201D1D0
:100BA00006250FE0284DA84201D107250AE0274D70
:100BB000A84201D1082505E0254DA84201D109250B
:100BC00000E00A25BD402543C6F80858DBF8004080
:100BD0005D464E689C43F60300D51C432C60DEF84E
:100BE000004075464E689C43B60300D51C432C60FC
:100BF0000B4D08352C684E689C43F60200D51C430B
:100C00002C60074D0C352C684E689C43B60200D50D
:100C10001C432C60521C102AFFF444AFBDE8F88F2F
:100C2000003C0140443802400030014000000240D6
:100C30000004024000080240000C02400010024084
:100C40000014024000180240001C02400020024034
:100C5000002402400AB1816170470904FBE70000EB
:100C60000148806870470000140000200248816835
:100C70000278114481607047140000200B4810B5C1
:100C8000016841F400710160016841F48061016014
:100C9000016841F480710160032000F097F80020A2
:100CA00000F006F800F024F8002010BD003C0240DF
:100CB00070B50D4D04464FF47A712878B1FBF0F011
:100CC0000A490968B1FBF0F000F0FDFA48B9102CB0
:100CD00007D200222146501E00F058F800206C6018
:100CE00070BD012070BD0000140000202000002015
:100CF0001F4808B5016841F480410160006800F4B4
:100D0000804000901A48001F016841F08051016046
:100D1000006800F080500090032000F057F8002297
:100D200011466FF00B0000F031F8002211466FF011
:100D30000A0000F02BF8002211466FF0090000F0C5
:100D400025F800221146501F00F020F8002211461D
:100D5000101F00F01BF800221146901E00F016F83C
:100D60000022BDE808401146501E00F00FB80000F8
:100D70004438024000F01F020121914040098000E8
:100D800000F1E020C0F8001170470000F0B40E4BF5
:100D90001B680C46C3F30223C3F10705042D00D9D9
:100DA0000425191D072901D2002300E0DB1E0126BE
:100DB00006FA05F1491E214099409E40761E1640D4
:100DC0003143F0BC00F098BC0CED00E0064900F0A7
:100DD000070208684FF6FF03184040EA0220034A62
:100DE00010430860704700000CED00E00000FA05B9
:100DF0002DE9F0470E46050065D0DFF81481D8F8DC
:100E00000000F7B200F00F00B04207D288F800707F
:100E1000D8F8000000F00F00B04254D128683D4CD3
:100E2000810712D5400703D5206840F4E0502060C8
:100E30002878000703D5206840F4604020602068CF
:100E4000A96820F0F000084320602878C0072DD062
:100E5000304968680839012812D0022813D00328C5
:100E600011D00968890700292DDA216821F00301D2
:100E700001432160FFF7F4FE814641F2883A0EE01B
:100E800009688903EFE709688901ECE7FFF7E8FEE5
:100E9000A0EB0901514502D90320BDE8F087206885
:100EA000696800F00C00B0EB810FEFD1D8F80010AA
:100EB000404601F00F01B14207D90770006800F009
:100EC0000F00B04201D00120E7E72878400705D5A0
:100ED0002068E96820F4E050084320602878000783
:100EE00006D52068296920F4604040EAC1002060EE
:100EF00000F01CF82168084AC1F30311515CC84096
:100F0000064908600020FFF7D3FE0020C5E7000077
:100F1000003C02400838024062190008200000200E
:100F2000014800687047000020000020154810B5F7
:100F3000006810F00C02144813D01449042A0FD092
:100F4000082A0ED10F4C241F2268236802F03F02AA
:100F50005B0207D52068C0F38810A0FB010106E002
:100F6000084610BD2168C1F38811A1FB00010023D0
:100F7000FFF738F92168C1F30141491C4900B0FB72
:100F8000F1F010BD083802400024F40040787D01E3
:100F90002DE9F84F050076D02878DFF8F8B2BE4C7E
:100FA000C00749D0DBF800105846C1F38101012980
:100FB00008D00068C0F3810002280AD1201D006813
:100FC000400206D52068800336D568680028E2D044
:100FD00032E06868B0F5803F10D0B0F5A02F2068EF
:100FE00010D020F480302060206820F48020206021
:100FF0006868A0B1FFF734FE06460CE0206840F4B4
:101000008030F4E740F480202060F7E7FFF728FE07
:10101000801B642873D820688003F7D50CE0FFF7A5
:101020001FFE064605E000BFFFF71AFE801B64287E
:10103000F0D820688003F7D42878DFF86082800732
:101040004FF000093ED5DBF80010584611F00C0FA8
:1010500009D00068C0F3810002280BD18D48001F21
:101060000068400206D42068800715D5E86801288A
:1010700009D111E0E868B8B10120C8F80000FFF715
:10108000EFFD064605E002E1FFF7EAFD801B0228BE
:10109000C0D820688007F7D52068296920F0F800BB
:1010A00040EAC10020600DE0C8F80090FFF7D8FDCD
:1010B000064604E0FFF7D4FD801B02281FD82068F5
:1010C0008007F7D42878000722D5724E74486969E2
:1010D0006C3671B101210160FFF7C2FD074604E0E3
:1010E000FFF7BEFDC01B022809D830688007F7D57E
:1010F0000EE0C0F80090FFF7B3FD074605E083E07F
:10110000FFF7AEFDC01B02287ED830688007F7D4F9
:101110002878400768D5DFF87CA100270AF1380A53
:10112000DAF80000C0000BD4DAF8001041F080516A
:10113000CAF80010DAF80000012700F08050009093
:10114000584E3068C00510D4306840F4807030606C
:10115000FFF786FD009005E0FFF782FD0099401A39
:10116000022851D83068C005F6D54A4EA8686836BE
:1011700001280FD00528306810D020F00100306021
:10118000306820F004003060A868B8B1FFF768FD4F
:1011900000900FE0306840F00100F4E740F00400F8
:1011A0003060F7E7FFF75CFD0099411A41F28830A3
:1011B000814264D830688007F4D50EE0FFF750FD17
:1011C000009007E0FFF74CFD0099411A41F288308A
:1011D000814254D830688007F4D42FB1DAF8001077
:1011E00021F08051CAF80010A869C0B3DBF80010E4
:1011F000C1F3810102294AD00228484607D0C8F825
:101200006000FFF72DFD00E039E005463AE0474673
:10121000C8F86000FFF724FD064604E0FFF720FD54
:10122000801B02282BD820688001F7D4D5E907015C
:101230000843A96A1C4A490802EB01416A6A41EA6B
:101240008211084395F82C1040EA01611148001FF3
:10125000016001203866FFF703FD054605E014E054
:10126000FFF7FEFC401B022809D820688001F7D553
:101270000BE000BFFFF7F4FC401B022802D903205B
:10128000BDE8F88F20688001F4D40020F8E7012041
:10129000F6E70000083802400038024000004742EC
:1012A000800E4742007000400000FFFF4FF0E02139
:1012B0000428086903D020F004000861704740F05A
:1012C0000400FAE7704710B5401EB0F1807F01D3EB
:1012D000012010BD4FF0E02460610F21601700F085
:1012E0000BFA0020A06107202061002010BD10B57E
:1012F000FFF7E8FF10BD7047704730B590F8382011
:10130000012A20D0012280F83820022380F83930C9
:1013100003685C6824F070045C6003685C680D68B6
:101320002C435C6003689C6824F080049C60036824
:101330009C6849680C439C6080F83920002180F843
:101340003810084630BD022030BD10B5040003D06F
:1013500094F8390010B107E0012010BD002084F896
:101360003800204600F00CF8022084F83900211DD6
:10137000206800F05DFA012084F83900002010BDDB
:1013800008B500680B49884212D10B48016841F04A
:10139000100101600068002200F01000009011466A
:1013A0003620FFF7F3FCBDE808403620FFF7E2BC2B
:1013B00008BD00000010004040380240704770B582
:1013C0000446006801694FF00005C943890715D438
:1013D000C168C943890711D4E91E01610120207643
:1013E000206880698007204602D0FFF7E7FF04E00D
:1013F00000F098F8204600F096F8257620680169FC
:10140000C943490717D4C168C943490713D46FF0CA
:1014100004010161022020762068806910F4407F79
:10142000204602D0FFF7CAFF04E000F07BF8204618
:1014300000F079F8257620680169C943090716D4B8
:10144000C168C943090712D46FF008010161042083
:1014500020762068C0698007204602D0FFF7AEFFE3
:1014600004E000F05FF8204600F05DF82576206883
:101470000169C943C90617D4C168C943C90613D451
:101480006FF010010161082020762068C06910F417
:10149000407F204602D0FFF791FF04E000F042F8C1
:1014A000204600F040F8257620680169C943C90745
:1014B00008D1C168C943C90704D1891E016120460A
:1014C00000F032F820680169C943090609D4C168EF
:1014D000C943090605D46FF0800101612046FFF77A
:1014E0000AFF20680169C943490609D4C168C94394
:1014F000490605D46FF040010161204600F015F85F
:1015000020680169C94389060BD4C168C9438906AB
:1015100007D46FF0200101612046BDE87040FFF75D
:10152000EBBE70BD7047704770477047FEE74FF4E1
:10153000FA6003461A461146AFF3008030B4094CF6
:10154000050A25706070080AA070E170100A207109
:101550006271180AA071E371224630BC0249034847
:10156000FEF7E4BE04000020A400002024000020B8
:10157000104810B50E4901600321416000214FF46D
:1015800000228160C0E903124FF4401242610176EB
:1015900041768176C176017701214177FFF760F9C5
:1015A000002803D0BB21044800F0A4F910BD0000BE
:1015B0000064004024000020E41600082DE9F041FA
:1015C000324886B00025016841F0080101600168D9
:1015D00001F008010591016841F080010160016896
:1015E00001F080010591016841F02001016001686E
:1015F00001F020010591016841F04001016000689F
:10160000234E00F040000590012204213046FFF7F0
:1016100021FBDFF880804FF48047002239464046A6
:10162000FFF718FB042001248DE83100694630469D
:101630000395FFF729FA184E6003CDE900066946C5
:1016400002944046FFF720FACDE900466946134868
:101650000294FFF719FA0097CDE901456946404623
:101660000395FFF711FA002211460620FFF78EFBC3
:101670000620FFF77FFB002211462820FFF786FB9C
:101680002820FFF777FB06B0BDE8F0813038024034
:10169000001C02400014024000002110001802400B
:1016A0001CB50F480D49002401602A21C0E901142E
:1016B0004FF4FA61C160FFF748FE08B1CC2108E0A1
:1016C0000094694606480194FFF717FE002803D0EE
:1016D000D32104A000F00EF91CBD00000010004052
:1016E0004C0000202E2E2F5372632F6D61696E2ED9
:1016F00063000000FEE770470907090E002806DABC
:1017000000F00F0000F1E02080F8141D704700F198
:10171000E02080F8001470477047704710B5FFF75D
:10172000A5FABDE81040FFF7E2BD000010B5224861
:1017300092B00024016841F080510160006800F01F
:10174000805011901D48016821F4404141F48041CE
:1017500001600068069400F440401190022000905F
:1017600001200390102004906846FFF711FC08B197
:101770008C210BE00F20CDE90C040E940F94002176
:101780000CA81094FFF734FB18B19A210CA000F0BC
:10179000B1F8FFF7C5FB4FF47A71B0FBF1F0FFF73A
:1017A00092FD0420FFF782FD00221146501EFFF734
:1017B000EDFA12B010BD0000403802400070004049
:1017C0002E2E2F5372632F6D61696E2E6300000001
:1017D0001048016841F4700101600F48016841F050
:1017E000010101600C4A00210832116002680B4BB4
:1017F0001A400260031D0A4A1A60026822F480221D
:10180000026005480C3001600249580680390860C2
:101810007047000088ED00E000380240FFFFF6FE50
:10182000103000240148FFF7CABD00004C00002022
:10183000F0B50268234B244D244E254F254C4FF024
:10184000804C984209D0604507D0A84205D0B042EC
:1018500003D0B84201D0A04204D122F0700E4A68F1
:1018600042EA0E0298421BD0604519D0A84217D018
:10187000B04215D0B84213D0A04211D0164DA842A4
:101880000ED0164DA8420BD0154DA84208D0154DCC
:10189000A84205D0144DA84202D0144DA84203D14D
:1018A00022F44075CA682A4302608A68C2620A68E4
:1018B0008262984201D0A04201D1096901630121ED
:1018C0004161F0BD000001400004004000080040FC
:1018D000000C004000040140004001400044014071
:1018E0000048014000180040001C0040002000405B
:1018F000FEE700000A4C4FF480464FF4C875012201
:1019000031462046FFF7A6F92846FFF79DF800224A
:1019100031462046FFF79EF92846FFF795F8EEE797
:101920000014024002E008C8121F08C1002AFAD1C0
:1019300070477047002001E001C1121F002AFBD14F
:101940007047FFF79BF9FFF7F1FEFFF737FEFFF750
:101950000FFEFFF7A5FEFEF7BFFC0120FFF774F8AE
:10196000FBE700000000000000000102030406077E
:10197000080900009419000800000020240000005D
:1019800024190008B819000824000020DC04000015
:1019900034190008000000000000000000000000F2
:1019A0000000000000000000010000001000000026
:0819B000000000000024F40017
:04000005080001AD41
:00000001FF
