:020000040800F2
:1000000068040020C1010008E70F00085F0F000826
:10001000E50F0008A9020008FD100008000000001C
:100020000000000000000000000000000B100008AD
:10003000DD02000800000000091000080D10000893
:10004000DB010008DB010008DB010008DB01000820
:10005000DB010008DB010008DB010008DB01000810
:10006000DB010008DB010008DB010008DB01000800
:10007000DB010008DB010008DB010008DB010008F0
:10008000DB010008DB010008DB010008B902000801
:10009000AD020008DB010008DB010008DB010008FD
:1000A000DB010008DB010008DB010008DB010008C0
:1000B000DB010008DB010008DB010008DB010008B0
:1000C000DB010008DB010008DB010008DB010008A0
:1000D000DB010008DB010008DB010008DB01000890
:1000E000DB010008DB010008DB010008DB01000880
:1000F000DB010008DB010008DB010008DB01000870
:10010000DB010008DB010008DB010008DB0100085F
:10011000DB010008DB010008DB010008DB0100084F
:10012000DB010008DB010008DB010008DB0100083F
:10013000DB010008DB010008DB010008D102000838
:10014000C5020008DB010008DB010008DB01000834
:10015000DB010008DB010008DB010008DB0100080F
:10016000DB010008DB010008DB010008DB010008FF
:10017000DB010008DB010008DB01000800000000D3
:10018000DB010008DB010008DB010008DB010008DF
:10019000DB010008DB010008DB010008DB010008CF
:1001A0000000000000000000DB010008DFF80CD0B8
:1001B00000F068F8004800471D110008680400209E
:1001C0000648804706480047FEE7FEE7FEE7FEE7F1
:1001D000FEE7FEE7FEE7FEE7FEE7FEE7A910000800
:1001E000AD0100082DE9F05F0546002092469B46D0
:1001F00088460646814640241BE02846414647463D
:10020000224600F02FF853465A46C01A914110D3A7
:1002100011461846224600F016F82D1A67EB010821
:100220004F4622460120002100F00DF817EB00098F
:100230004E41201EA4F10104DFDC484631462A4627
:100240004346BDE8F09F202A04DB203A00FA02F181
:10025000002070479140C2F1200320FA03F31943B4
:1002600090407047202A04DB203A21FA02F0002156
:10027000704721FA02F3D040C2F1200291400843B6
:1002800019467047064C074D06E0E06840F0010350
:1002900094E8070098471034AC42F6D3FFF78AFF82
:1002A0005811000878110008FEE70000014800F02E
:1002B00017B8000014000020014800F011B8000039
:1002C00014000020014800F00BB800003C000020A2
:1002D000014800F005B800003C000020704770475E
:1002E0002DE9F05F0546006800244669D0F80490C7
:1002F0008768D0F80CB0D0F810A0D0F81880F107BB
:1003000048D0F90714D001218160B80703D52846E9
:1003100000F0EEF90CE0780702D54FF4006407E036
:10032000380702D54FF4805402E0284600F0DFF988
:10033000F80516D529684FF480708860B80503D594
:10034000284600F0D7F90CE0780502D544F40054B3
:1003500007E0380502D544F4804402E0284600F066
:10036000C8F9F80316D529684FF480308860B803BF
:1003700003D5284600F0C0F90CE0780302D544F418
:10038000004407E0380302D544F4803402E02846F4
:1003900000F0B1F9300707D55FEACB6004D52968D2
:1003A000102044F40074C86070074FF0080707D5A8
:1003B0005FEA0B7004D52868C760284600F092F900
:1003C000B00706D52868C068800702D0284600F02C
:1003D0008AF9700607D55FEACA6004D5296810203B
:1003E00044F480640861B00607D55FEA0A7004D55A
:1003F00028680761284600F077F9F00606D52868D6
:100400000069800702D0284600F06FF9B00308D5D4
:100410005FEAC96005D5296810204860284600F0C9
:1004200065F9F00307D55FEA097004D528684760CD
:10043000284600F062F9300446D55FEA497040D59D
:10044000F00504D55FEAC87001D044F00104B0059E
:1004500004D55FEA887001D544F00204700504D524
:100460005FEA487001D544F00404300529D518F03E
:10047000700F26D008F07000402815D006DC102838
:1004800009D020280AD0302816D10AE050280ED0F2
:10049000602811D10EE044F008040DE044F010048F
:1004A0000AE044F0200407E044F0400404E044F093
:1004B000800401E044F480742868816921F07001AF
:1004C0008161296804204860002C05D0686A2043B7
:1004D00068622846FFF703FFBDE8F09F70B504008F
:1004E00003D094F8200010B104E0012070BD204634
:1004F00000F082F82068016821F00201016000F03C
:10050000E3F90546052604E000F0DEF9401B0A2861
:1005100011D8206840688007F6D42068016841F04F
:100520000101016000F0D0F905460BE000F0CCF9C4
:10053000401B0A2806D9606A40F40030606284F8E3
:100540002060D2E720684068C007EFD0207E0128F5
:10055000206801683DD021F080010160607E0128A3
:100560002068016838D021F040010160A07E012898
:100570002068016833D021F020010160E07E01286D
:10058000206801682ED041F010010160207F012811
:100590002068016829D021F008010160607F0128EE
:1005A0002068016824D021F004010160D4E902012F
:1005B0000843D4E90412114308436168491E084303
:1005C0002168C86100206062012084F820000020BA
:1005D00070BD41F08001C0E741F04001C5E741F046
:1005E0002001CAE721F01001CFE741F00801D4E76C
:1005F00041F00401D9E70000F0B5364BDFF8D0E058
:10060000D0F800C019680225032609273248334A6A
:100610000024491C87B0F44523D11960012907D172
:10062000116841F000711160116801F000710591CD
:100630004FF44071CDE9001502AA694682E8D00066
:1006400000F05CF800220521132000F0D3F91320FC
:1006500000F0C4F900220521142000F0CBF9142089
:1006600031E0DFF87CE0F4452FD1D2F800C04CF047
:10067000806CC2F800C0D2F800C001290CF0806C78
:10068000CDF814C0196007D1116841F000711160F4
:10069000116801F0007105916021CDE9001502AAF1
:1006A000694682E8D00000F029F8002206213F20A8
:1006B00000F0A0F93F2000F091F90022062140202F
:1006C00000F098F9402000F089F907B0F0BD000073
:1006D0000064004000000020000402404038024056
:1006E0000068004070477047704770477047704718
:1006F0007047704770477047704770472DE9F84F53
:10070000DFF890B100224FF001084FF0030A4FF0DC
:100710000F090BF1040E00BF0B6808FA02F4234026
:10072000A3426ED14D68022D01D0122D0ED1D508F5
:1007300000EB850CDCF820505607F70E09FA07F697
:10074000B5430E69BE402E43CCF8206006685500C4
:100750000F790AFA05FC07F0030726EA0C06AF40FA
:10076000374307604E68012E05D0022E03D0112EAC
:1007700001D0122E0ED18768CE6827EA0C07AE4052
:100780003E4386604668A6430C79C4F30014944047
:1007900034434460C4688E6824EA0C04AE402643A7
:1007A000C6604C68E4006FD53B4C256845F4804535
:1007B0002560246822F0030504F480440094374C3B
:1007C0002E19D6F8084895072F0F09FA07F5AC43FC
:1007D000334DA84201D100252EE0324DA84201D16F
:1007E000012529E0304DA84201D1022524E02F4DFA
:1007F000A84201D103251FE02D4DA84202D10425B6
:100800001AE041E02B4DA84201D1052514E02A4D04
:10081000A84201D106250FE0284DA84201D10725A5
:100820000AE0274DA84201D1082505E0254DA84240
:1008300001D1092500E00A25BD402543C6F8085826
:10084000DBF800405D464E689C43F60300D51C4330
:100850002C60DEF8004075464E689C43B60300D518
:100860001C432C600B4D08352C684E689C43F602E7
:1008700000D51C432C60074D0C352C684E689C43FA
:10088000B60200D51C432C60521C102AFFF444AF62
:10089000BDE8F88F003C0140443802400030014080
:1008A000000002400004024000080240000C024028
:1008B000001002400014024000180240001C0240D8
:1008C0000020024000240240014880687047000078
:1008D000040000200248816802781144816070475A
:1008E000040000200B4810B5016841F4007101605C
:1008F000016841F480610160016841F48071016028
:10090000032000F097F8002000F006F800F024F82B
:10091000002010BD003C024070B50D4D04464FF460
:100920007A712878B1FBF0F00A490968B1FBF0F060
:1009300000F0FDFA48B9102C07D200222146501EC3
:1009400000F058F800206C6070BD012070BD000000
:1009500004000020100000201F4808B5016841F481
:1009600080410160006800F4804000901A48001F38
:10097000016841F080510160006800F080500090F3
:10098000032000F057F8002211466FF00B0000F032
:1009900031F8002211466FF00A0000F02BF8002217
:1009A00011466FF0090000F025F800221146501F93
:1009B00000F020F800221146101F00F01BF8002262
:1009C0001146901E00F016F80022BDE808401146BE
:1009D000501E00F00FB800004438024000F01F0223
:1009E000012191404009800000F1E020C0F8001191
:1009F00070470000F0B40E4B1B680C46C3F3022393
:100A0000C3F10705042D00D90425191D072901D2BA
:100A1000002300E0DB1E012606FA05F1491E2140F5
:100A200099409E40761E16403143F0BC00F0DCBA7F
:100A30000CED00E0064900F0070208684FF6FF03DE
:100A4000184040EA0220034A104308607047000043
:100A50000CED00E00000FA052DE9F0470E46050018
:100A600065D0DFF81481D8F80000F7B200F00F006D
:100A7000B04207D288F80070D8F8000000F00F00EC
:100A8000B04254D128683D4C810712D5400703D5A8
:100A9000206840F4E05020602878000703D52068E3
:100AA00040F4604020602068A96820F0F00008430E
:100AB00020602878C0072DD030496868083901289F
:100AC00012D0022813D0032811D009688907002901
:100AD0002DDA216821F0030101432160FFF7F4FEC4
:100AE000814641F2883A0EE009688903EFE7096818
:100AF0008901ECE7FFF7E8FEA0EB0901514502D9B7
:100B00000320BDE8F0872068696800F00C00B0EBB6
:100B1000810FEFD1D8F80010404601F00F01B1422B
:100B200007D90770006800F00F00B04201D0012023
:100B3000E7E72878400705D52068E96820F4E05009
:100B4000084320602878000706D52068296920F42A
:100B5000604040EAC100206000F01CF82168084AAB
:100B6000C1F30311515CC840064908600020FFF73B
:100B7000D3FE0020C5E70000003C024008380240D8
:100B8000481100081000002001480068704700006C
:100B900010000020154810B5006810F00C02144831
:100BA00013D01449042A0FD0082A0ED10F4C241F49
:100BB0002268236802F03F025B0207D52068C0F379
:100BC0008810A0FB010106E0084610BD2168C1F3B2
:100BD0008811A1FB00010023FFF704FB2168C1F38A
:100BE0000141491C4900B0FBF1F010BD083802403A
:100BF0000024F40040787D012DE9F84F050076D0FF
:100C00002878DFF8F8B2BE4CC00749D0DBF80010F6
:100C10005846C1F38101012908D00068C0F3810062
:100C200002280AD1201D0068400206D520688003F2
:100C300036D568680028E2D032E06868B0F5803FB9
:100C400010D0B0F5A02F206810D020F480302060A4
:100C5000206820F4802020606868A0B1FFF734FE8F
:100C600006460CE0206840F48030F4E740F4802031
:100C70002060F7E7FFF728FE801B642873D8206800
:100C80008003F7D50CE0FFF71FFE064605E000BF26
:100C9000FFF71AFE801B6428F0D820688003F7D481
:100CA0002878DFF8608280074FF000093ED5DBF836
:100CB0000010584611F00C0F09D00068C0F38100F5
:100CC00002280BD18D48001F0068400206D420681E
:100CD000800715D5E868012809D111E0E868B8B1A6
:100CE0000120C8F80000FFF7EFFD064605E002E12D
:100CF000FFF7EAFD801B0228C0D820688007F7D5DF
:100D00002068296920F0F80040EAC10020600DE069
:100D1000C8F80090FFF7D8FD064604E0FFF7D4FDC1
:100D2000801B02281FD820688007F7D42878000786
:100D300022D5724E744869696C3671B10121016027
:100D4000FFF7C2FD074604E0FFF7BEFDC01B022807
:100D500009D830688007F7D50EE0C0F80090FFF79B
:100D6000B3FD074605E083E0FFF7AEFDC01B022898
:100D70007ED830688007F7D42878400768D5DFF838
:100D80007CA100270AF1380ADAF80000C0000BD471
:100D9000DAF8001041F08051CAF80010DAF80000CB
:100DA000012700F080500090584E3068C00510D4E4
:100DB000306840F480703060FFF786FD009005E0F9
:100DC000FFF782FD0099401A022851D83068C0050B
:100DD000F6D54A4EA868683601280FD00528306835
:100DE00010D020F001003060306820F00400306046
:100DF000A868B8B1FFF768FD00900FE0306840F0D8
:100E00000100F4E740F004003060F7E7FFF75CFD15
:100E10000099411A41F28830814264D830688007D5
:100E2000F4D50EE0FFF750FD009007E0FFF74CFD12
:100E30000099411A41F28830814254D830688007C5
:100E4000F4D42FB1DAF8001021F08051CAF8001064
:100E5000A869C0B3DBF80010C1F3810102294AD0B0
:100E60000228484607D0C8F86000FFF72DFD00E0D3
:100E700039E005463AE04746C8F86000FFF724FD30
:100E8000064604E0FFF720FD801B02282BD82068CF
:100E90008001F7D4D5E907010843A96A1C4A49082B
:100EA00002EB01416A6A41EA8211084395F82C106D
:100EB00040EA01611148001F016001203866FFF718
:100EC00003FD054605E014E0FFF7FEFC401B022889
:100ED00009D820688001F7D50BE000BFFFF7F4FCCC
:100EE000401B022802D90320BDE8F88F206880014A
:100EF000F4D40020F8E70120F6E7000008380240AB
:100F00000038024000004742800E47420070004017
:100F10000000FFFF4FF0E0210428086903D020F013
:100F200004000861704740F00400FAE7704710B50C
:100F3000401EB0F1807F01D3012010BD4FF0E024AE
:100F400060610F21601700F04FF80020A0610720BA
:100F50002061002010BD10B5FFF7E8FF10BDFEE7CF
:100F60000E4810B50C4901600521416000214FF485
:100F700000328160C0E90312520142610176012210
:100F800042768176C17601774177FFF7A7FA00288C
:100F900000D0FEE710BD00000064004014000020F7
:100FA0000F4810B50D4901600521416000214FF047
:100FB0004072C0E902124FF40032026152014261F4
:100FC0000176012242768176C17601774177FFF77B
:100FD00085FA002800D0FEE710BD00000068004040
:100FE0003C000020FEE770470907090E002806DADA
:100FF00000F00F0000F1E02080F8141D704700F1B0
:10100000E02080F8001470477047704710B5FFF774
:1010100061FCBDE81040FFF79EBF000010B52048FE
:1010200092B00024016841F080510160006800F036
:10103000805011901B48016821F4404141F48041E7
:1010400001600068069400F4404011900220009076
:1010500001200390102004906846FFF7CDFD00B1F9
:10106000FEE70F20CDE90C040E940F9400210CA88C
:101070001094FFF7F1FC00B1FEE7FFF785FD4FF498
:101080007A71B0FBF1F0FFF752FF0420FFF742FF47
:1010900000221146501EFFF7ADFC12B010BD00003B
:1010A00040380240007000401048016841F470016F
:1010B00001600F48016841F0010101600C4A002104
:1010C0000832116002680B4B1A400260031D0A4A85
:1010D0001A60026822F48022026005480C30016028
:1010E00002495806803908607047000088ED00E02A
:1010F00000380240FFFFF6FE10300024FEE702E059
:1011000008C8121F08C1002AFAD170477047002092
:1011100001E001C1121F002AFBD1704708B5FFF79B
:10112000E1FBFFF77BFF0748016841F00201016026
:10113000006800F002000090FFF712FFFFF730FF99
:10114000FEE7000030380240000000000000000010
:1011500001020304060708097811000800000020B6
:1011600014000000FE1000088C110008140000207C
:10117000540400000E1100080000000001000000EF
:0C11800010000000000000000024F4003B
:04000005080001AD41
:00000001FF
